:020000040000FA
:040000000DEF00F010
:040008001CEF03F0F6
:10001800FF00CCEF02F0BBEC02F0D68E00EC02F051
:10002800A9EC02F063D029502A10D8A406D0545065
:1000380071EC01F07FEC02F015D02C04D8A44ED05E
:10004800000E2C6E000E2A6E000E296EA9EC02F02E
:1000580045D029502A10D8A40AD0545071EC01F088
:100068003AEC02F0000E2A6E010E296E37D02C04ED
:10007800D8A434D0000E2C6E000E2A6E000E296E05
:10008800A9EC02F02BD029502A10D8A406D054503D
:1000980071EC01F051EC02F0E5D72C04D8A41ED085
:1000A800000E2C6E000E2A6E000E296EA9EC02F0CE
:1000B80015D029502A10D8A406D0545071EC01F05C
:1000C80068EC02F0CFD72C04D8A408D0000E2C6E10
:1000D800000E2A6E000E296EA9EC02F0030006D06D
:1000E800DD0E466EFF0E476E96EC02F054504C6ED5
:1000F8004D6A4D50000AD8A4F3D74C50010AD8B421
:1001080092D7030AD8B4A5D7010AD8B4BCD7070A2E
:10011800D8B4CFD7E5D76100E8F4D9F46100ECF49E
:10012800DAF4DEC4F6F4DDC4F7F4F86A0800F55032
:10013800250AD8A449D06100E8F4D9F46100ECF4A8
:10014800DAF4DE2A000EDD22000E246E000E236E85
:1001580023C527F524C528F5256826686100E8F435
:10016800D9F46100ECF4DAF4DEC4F6F4DDC4F7F493
:10017800F86A0800F550250AD8A418D06100E8F4F8
:10018800D9F46100ECF4DAF4DE2A000EDD22000E68
:10019800306E250E2F6E38C531F539C532F507ECAE
:1001A80001F0000E396E010E386E12006100E8F49D
:1001B800D9F46100ECF4DAF4DE2A000EDD22000E38
:1001C800396E000E386E12006100E8F4D9F461004F
:1001D800ECF4DAF4DEC4F6F4DDC4F7F4F86A0800E7
:1001E800F5502F6E306A38C531F539C532F507EC50
:1001F80001F06100E8F4D9F46100ECF4DAF4DE2AE5
:10020800000EDD22CED731503210D8B404D0315090
:100218003210D8A404D02F5032EC03F0120020EE94
:1002280004F03150D9263250DA22DE50DE10D8B42C
:1002380016D020EE04F03150D9263250DA2210EED2
:1002480002F03150E1263250E222DE50E65CE65000
:10025800800A376EDE50800A3758D8B0120020EE78
:1002680002F03150D9263250DA22DE2A000EDD2281
:100278001200000E0201A56F000EA66F000EA76FF8
:10028800000EA86F000EA96F000EAA6FB00EAB6F1C
:10029800800EAC6F000EAD6F820EAE6F060EAF6FA4
:1002A800000EB06F000EB16F000EB26F000EB36F8C
:1002B800000E2D6E000E2E6E28EC03F0000E2D6E33
:1002C800000E2E6E23EC03F0000E2D6E000E2E6E27
:1002D8002DEC03F0000E2B6E12002F6E2F50306E97
:1002E800316A30BE310631BE1200315003E13004AC
:1002F800D8A01200C092150E2E6E4B0E2D6EBE0E9B
:10030800E82EFED72D2EFCD72E2EFAD700D0C0828D
:10031800150E2E6E4B0E2D6EBE0EE82EFED72D2E10
:10032800FCD72E2EFAD700D03006D8A0310631BE21
:1003380012003150DFE13004D8A01200DBD7000EE4
:10034800BE6E000EBF6E020EC06E3F0EC66E700E01
:10035800C76EFD0EC86EFE0E0401106FD00E086F3A
:10036800070E006F000E096F300E016F030E116F3C
:10037800000E026F000E0A6F000E126F370E036F29
:10038800F00E0B6F13693F0E046FF00E0C6F1469BB
:10039800100E0201106F100E486F0D0E726F1200D2
:1003A80040C544F541C545F5000E226E000E216E8C
:1003B80012D03EC538F53FC539F5440E3A6E050EE4
:1003C8003B6E42C53CF543C53DF58FEC00F0385017
:1003D800212639502222610010F5F6F4610014F547
:1003E800F7F4F86A0800F5500009D8A4E2D721C547
:1003F8003EF522C53FF51200700E466EFF0E476EA1
:1004080096EC02F0DE0E466EFE0E476E96EC02F09B
:100418005D0E466EFD0E476E96EC02F02D0E466E92
:10042800FE0E476E96EC02F0A70E466EFD0E476E66
:1004380096EC02F01200000ED56F0A0ED76F100E60
:10044800D86F140ED96F140EDA6F140EDB6F020E0C
:10045800DC6F000EDD6F000EDE6F000EDF6F000E2A
:10046800D46F9E0ED66FB39AA88A1200480E466EB5
:10047800FF0E476E96EC02F0BA0E466EFF0E476E00
:1004880096EC02F00001A39F000EA46F020EA56F68
:10049800010EA66FC80EA36F1200ED0E466EFD0E7C
:1004A800476E96EC02F0BA0E466EFF0E476E96EC5B
:1004B80002F00001A39F5F0EA46F120EA56F810EBC
:1004C800A66FC00EA36F1200690E466EFE0E476E31
:1004D80096EC02F0970E466EFF0E476E96EC02F011
:1004E8000001A39F5A0EA46F130EA56F800EA66F6E
:1004F800C00EA36F1200A50E466EFE0E476E96EC58
:1005080002F0150E466EFF0E476E96EC02F00001E3
:10051800A39F020EA46F220EA56F010EA66FC00E38
:10052800A36F1200480E4A6E050E4B6E000E3E6E0B
:10053800000E3F6E46C540F547C541F54A0E426E6E
:10054800050E436ED4EC01F01200CEA803D02D6A3C
:100558002D2A01D02D6ACEAA02D0010E01D0000E9C
:10056800020DF3502D242E6E2E28546E12003BECF3
:1005780003F0EBEC02F0A3EC01F0F9EC02F01FEC55
:1005880002F0DCEC02F03DEC01F007EC03F01200A5
:1005980001EE01F12C0EEE6AE806FDE10401080EF9
:1005A8005D6F000E5E6F000E5F6F00010FEF00F0D1
:1005B800040E0301206F130E1F6F000E216FC10E72
:1005C8001D6F000E1C6FB696B00E1E6F1200000E47
:1005D8000001636F000E646F000E656F000E666F9A
:1005E800000E676F000E686F1200600E0001AD6F9D
:1005F800000EAF6F000EB36F080EB16F000EB06F34
:10060800000EAC6F1200020E0001A46F220EA56F3F
:10061800010EA66F000EA76F000EA96FC00EA36F84
:1006280012002D6EB7A2FED76100B4F4A3F2120037
:10063800A8AA1100B3AA110037EC03F011002DC5C8
:1006480050F52EC551F512002DC552F52EC553F59E
:1006580012002DC54EF52EC54FF512002E6E2E50E8
:1006680015EC03F01200B39A010E2C6E1200D69A04
:0206780012006E
:10FD5C00005072657373205357302061667465725E
:10FD6C002073656C656374696E67206D6F646520C4
:10FD7C006F66206F7065726174696F6E20746F208E
:10FD8C007265636F6E666967757265204F504120AE
:10FD9C006D6F64756C652E200D0A002D2D2D2D2D8B
:10FDAC002D2D2D2D2D2D2D2D2D2D2D2D2D2D2D2D77
:10FDBC002D2D2D2D2D2D2D2D2D2D2D2D2D2D2D2D67
:10FDCC002D2D2D2D2D2D2D2D2D2D2D2D2D2D2D2D57
:10FDDC002D2D2D2D2D2D2D2D2D2D2D2D2D2D0D0A8A
:10FDEC00004F504120436F6E66696775726174698C
:10FDFC006F6E3A204E6F6E2D496E76657274696E19
:10FE0C00672050726F6772616D6D61626C6520471F
:10FE1C0061696E20416D706C6966696572200D0AAE
:10FE2C0000506C6561736520726566657220746F35
:10FE3C0020696E636C7564656420726561646D65C0
:10FE4C002E6D6420666F72206D6F726520696E6610
:10FE5C006F726D6174696F6E2E200D0A004F5041E8
:10FE6C0020436F6E66696775726174696F6E3A20B4
:10FE7C00496E76657274696E672050726F67726135
:10FE8C006D6D61626C65204761696E20416D706CAF
:10FE9C006966696572200D0A004F504120436F6EF0
:10FEAC0066696775726174696F6E3A204469726530
:10FEBC00637420436F6E6E656374696F6E20746F2C
:10FECC002045787465726E616C2050696E73200DDC
:10FEDC000A0053656C656374204F5041206D6F644C
:10FEEC0065206F66206F7065726174696F6E207526
:10FEFC0073696E672070696E732052413420616E95
:10FF0C0064205241352E0D0A004F5041314F55544B
:10FF1C00203D20524332207C204F504131494E2B02
:10FF2C00203D20524333207C204F504131494E2DEF
:10FF3C00203D20524132200D0A0D0A004F50412025
:10FF4C00436F6E66696775726174696F6E3A20559E
:10FF5C006E697479204761696E20427566666572B8
:10FF6C00200D0A0050494331384631365134312086
:10FF7C00437572696F73697479204E616E6F204F8F
:10FF8C0050412044656D6F200D0A004F5041314F98
:10FF9C005554203D20524332207C204F5041314952
:10FFAC004E2D203D20524132200D0A0D0A004F509B
:10FFBC0041314F5554203D20524332207C204F502C
:10FFCC004131494E2B203D20524333200D0A0D0A5E
:10FFDC00004F504120436F6E66696775726174699A
:10FFEC006F6E20496E707574204572726F7221208D
:04FFFC000D0A0000EA
:020000040020DA
:10000000FF0FFF0FFF0FFF0FFF0FFF0FFF0FFF0F80
:10001000FF0FFF0FFF0FFF0FFF0FFF0FFF0FFF0F70
:020000040030CA
:0A0000008CFFF7FF9FFFFFFFFFFFDB
:00000001FF
