:040000000DEF00F010
:0400080089EF02F08A
:10001800FF004BEF02F07BEC02F0D68ED80E036E99
:10002800050E046EE3EC02F077EC01F06BEC02F0E5
:1000380046D02250231006E12A50F0EC00F0FCECE8
:1000480001F00ED02B0433E149D86BEC02F02FD02D
:100058002250231009E12A50F0EC00F025EC02F0C0
:10006800236A010E226E23D02B0421E137D86BECD2
:1000780002F01DD02250231006E12A50F0EC00F0C7
:10008800CDEC01F0EDD72B0412E128D86BEC02F08F
:100098000ED02250231006E12A50F0EC00F0E7ECD5
:1000A80001F0DED72B0403E119D86BEC02F0030052
:1000B80006D0DD0E1C6EFF0E1D6E5BEC02F02A50A2
:1000C800206E216A2150F5E12050010AB2E0030AAE
:1000D800BFE0010ACFE0070ADCE0EBD72B6A226A0F
:1000E800236A12000750081003E00750081003E1C4
:1000F8000550D6EF02F020EE0AF033D8DE50DE10BD
:1001080013E020EE0AF02DD810EE03F00750E12698
:100118000850E222DE50E65CE650800A0D6EDE50A2
:10012800800A0D58D8B0120020EE03F01AD8DEC4A9
:1001380009F5DDC40AF507C5D9F408C5DAF4DEC443
:100148000BF5DDC40CF509500B24D96E0A500C20B0
:10015800DA6E05C5DFF420EE03F003D8DE2A74EF6B
:1001680001F00750D9260850DA221200BE6ABF6A89
:10017800020EC06E3F0EC66E700EC76EF90EC86EC8
:10018800070E0401006F500E086FFC0E106F300E42
:10019800016F096B010E116F026B0A6B126B370E40
:1001A800036FF00E0B6F13693F0E046FF00E0C6FA8
:1001B80014690201876B866B0D0E726F100E486F03
:1001C800106F0401056B066B076B0D6B0E6B0F6BE5
:1001D800156B166B176B1200056E0550066E076AD5
:1001E80006BE070607BE1200075003E1060401E237
:1001F8001200C092150E046E4B0E036EBE0EE82E52
:10020800FED7032EFCD7042EFAD700D0C082150ED5
:10021800046E4B0E036EBE0EE82EFED7032EFCD7DF
:10022800042EFAD700D00606D8A0070607BE12008B
:100238000750DFE10604DDE212000201A16BA26BA8
:10024800A36BA46BA56BA66BA76BA86BA96BAA6B1A
:10025800B00EAB6F800EAC6F080EAD6F820EAE6F36
:10026800060EAF6F200EB06FB16B800EB26FB36B1E
:10027800036A046AC4EC02F0036A046ABBEC02F085
:10028800000E036A046AEFEC02F0286A296A120079
:1002980010C5D9F415D8250A06E11CD8000EDD22B0
:1002A80019D8DD22000C10C5D9F40AD8056E066AE3
:1002B8000EC507F50FC508F576EC00F00BD810D081
:1002C80011C5DAF4DEC4F6F4DDC4F7F4F86A080000
:1002D800F550120010C5D9F411C5DAF4DE2A12005F
:1002E800000EDD22000C700E1C6EFF0E1D6E5BEC06
:1002F80002F0DE0E1C6EFE0E1D6E5BEC02F05D0E53
:100308001C6EFD0E1D6E5BEC02F02D0E1C6EFE0EBB
:100318001D6E5BEC02F0A70E1C6EFD0E1D6E5BEFF2
:1003280002F016C51AF517C51BF50ED014C50EF543
:1003380015C50FF51A0E106E050E116E18C512F5BB
:1003480019C513F54CEC01F01AC5F6F41BC5F7F402
:10035800F86A0800F550EAE1146A156A120000010B
:10036800D56B0A0ED76F100ED86FD96BDA6BDB6BB3
:10037800020EDC6FDD6BDE6BDF6BD46B9E0ED66F0F
:10038800B39AE60E036E050E046EE3EC02F0A88A3B
:100398001200ED0E1C6EFD0E1D6E5BEC02F00ED809
:1003A8005BEC02F00001A39F5F0EA46F120EA56F15
:1003B800810E00D0A66FA00EA36FA00CBA0E1C6E03
:1003C800FF0E1D6E1200690E1C6EFE0E1D6E5BEC9C
:1003D80002F0970E1C6EFF0E1D6E5BEC02F0000122
:1003E800A39F5A0EA46F130EA56F800EDEEF01F0C7
:1003F800A50E1C6EFE0E1D6E5BEC02F0150E1C6E3B
:10040800FF0E1D6E5BEC02F00001A39F020EA46FAD
:10041800220EA56F010EDEEF01F0D69AB490D680B9
:10042800000E036A046AF2EC02F0B990D682000E5C
:10043800036A046AF1EC02F0BD90D684036A046A88
:10044800000C480E1C6EFF0E1D6E5BEC02F0E2EC19
:1004580001F05BEC02F00001A39FA46B020EA56FF4
:10046800010EA66FA80EA36FA80C040E0301206F3F
:10047800130E1F6F216BC10E1D6F1C6B000E036ADC
:10048800046ADEEC02F0B696B00E1E6FB00C01EEF8
:1004980022F10A0EEE6AE806FDE10401080E5D6F1E
:1004A800000E5E6F000E5F6F00010FEF00F01E0E72
:1004B8001E6E050E1F6E146A156A1CC516F51DC53D
:1004C80017F51E0E186E050E196E95EF01F0CEA8E1
:1004D80003D0036A032A01D0036A010ECEAA000ED4
:1004E800020DF3500324046E04282A6E1200B1ECA6
:1004F80002F0BAEC00F0B3EC01F0A5EC02F039EC34
:1005080002F021EC01F011EF02F0FAC401F5FBC48E
:1005180002F5A8BAB3AA02D097EC02F002C5FBF420
:1005280001C5FAF41100B39A2E502F10D8B4120056
:100538000500FA6E2E50FD6E2F50FE6EFF6AFA50BF
:100548001200590E0001A46F220EA56F820EA66F2D
:10055800A76BA96B800EA36F800C600E0001AD6FB6
:10056800AF6BB36B080EB16FB06BAC6B120003507E
:100578000410D8B4120003C524F504C525F51200EB
:1005880003500410D8B4120003C526F504C527F596
:100598001200036A0201B0BBABAB02D0010E036EBE
:1005A80003501200046ECDEC02F00009FCE0045088
:1005B800E8EF02F003C52CF504C52DF5120003C5BC
:1005C8002EF504C52FF51200036E03C5A3F2120021
:1005D800010E2B6E010C1200120012001200120004
:10FD5C00005072657373205357302061667465725E
:10FD6C002073656C656374696E67206D6F646520C4
:10FD7C006F66206F7065726174696F6E20746F208E
:10FD8C007265636F6E666967757265204F504120AE
:10FD9C006D6F64756C652E200D0A002D2D2D2D2D8B
:10FDAC002D2D2D2D2D2D2D2D2D2D2D2D2D2D2D2D77
:10FDBC002D2D2D2D2D2D2D2D2D2D2D2D2D2D2D2D67
:10FDCC002D2D2D2D2D2D2D2D2D2D2D2D2D2D2D2D57
:10FDDC002D2D2D2D2D2D2D2D2D2D2D2D2D2D0D0A8A
:10FDEC00004F504120436F6E66696775726174698C
:10FDFC006F6E3A204E6F6E2D496E76657274696E19
:10FE0C00672050726F6772616D6D61626C6520471F
:10FE1C0061696E20416D706C6966696572200D0AAE
:10FE2C0000506C6561736520726566657220746F35
:10FE3C0020696E636C7564656420726561646D65C0
:10FE4C002E6D6420666F72206D6F726520696E6610
:10FE5C006F726D6174696F6E2E200D0A004F5041E8
:10FE6C0020436F6E66696775726174696F6E3A20B4
:10FE7C00496E76657274696E672050726F67726135
:10FE8C006D6D61626C65204761696E20416D706CAF
:10FE9C006966696572200D0A004F504120436F6EF0
:10FEAC0066696775726174696F6E3A204469726530
:10FEBC00637420436F6E6E656374696F6E20746F2C
:10FECC002045787465726E616C2050696E73200DDC
:10FEDC000A0053656C656374204F5041206D6F644C
:10FEEC0065206F66206F7065726174696F6E207526
:10FEFC0073696E672070696E732052413420616E95
:10FF0C0064205241352E0D0A004F5041314F55544B
:10FF1C00203D20524332207C204F504131494E2B02
:10FF2C00203D20524333207C204F504131494E2DEF
:10FF3C00203D20524132200D0A0D0A004F50412025
:10FF4C00436F6E66696775726174696F6E3A20559E
:10FF5C006E697479204761696E20427566666572B8
:10FF6C00200D0A0050494331384631365134312086
:10FF7C00437572696F73697479204E616E6F204F8F
:10FF8C0050412044656D6F200D0A004F5041314F98
:10FF9C005554203D20524332207C204F5041314952
:10FFAC004E2D203D20524132200D0A0D0A004F509B
:10FFBC0041314F5554203D20524332207C204F502C
:10FFCC004131494E2B203D20524333200D0A0D0A5E
:10FFDC00004F504120436F6E66696775726174699A
:10FFEC006F6E20496E707574204572726F7221208D
:04FFFC000D0A0000EA
:020000040030CA
:09000000FCFFF7FF9FFFFFFFFF6B
:00000001FF
