:020000040000FA
:040000000DEF00F010
:0400080072EF03F0A0
:10001800FF00EAEF02F05EEC03F03AEC03F0D68E54
:1000280039EC02F04CEC03F063D021502210D8A434
:1000380006D05E50DBEC01F0D3EC02F015D02A04B8
:10004800D8A44ED0000E2A6E000E226E000E216E2D
:100058004CEC03F045D021502210D8A40AD05E50B1
:10006800DBEC01F08EEC02F0000E226E010E216E28
:1000780037D02A04D8A434D0000E2A6E000E226E7F
:10008800000E216E4CEC03F02BD021502210D8A486
:1000980006D05E50DBEC01F0A5EC02F0E5D72A04AF
:1000A800D8A41ED0000E2A6E000E226E000E216EFD
:1000B8004CEC03F015D021502210D8A406D05E5085
:1000C800DBEC01F0BCEC02F0CFD72A04D8A408D0AE
:1000D800000E2A6E000E226E000E216E4CEC03F00C
:1000E800030006D0DD0E446EFF0E456E15EC03F0DE
:1000F8005E504A6E4B6A4B50000AD8A4F3D74A5058
:10010800010AD8B492D7030AD8B4A5D7010AD8B43B
:10011800BCD7070AD8B4CFD7E5D76100E0F4D9F443
:100128006100E4F4DAF4DEC4F6F4DDC4F7F4F86A46
:100138000800F550250AD8A449D06100E0F4D9F4A4
:100148006100E4F4DAF4DE2A000EDD22000E1C6EF3
:10015800000E1B6E1BC51FF51CC520F51D681E680B
:100168006100E0F4D9F46100E4F4DAF4DEC4F6F4F2
:10017800DDC4F7F4F86A0800F550250AD8A418D0A9
:100188006100E0F4D9F46100E4F4DAF4DE2A000E48
:10019800DD22000E2E6E250E2D6E36C52FF537C5C5
:1001A80030F5A5EC01F0000E376E010E366E120028
:1001B8006100E0F4D9F46100E4F4DAF4DE2A000E18
:1001C800DD22000E376E000E366E12006100E0F47C
:1001D800D9F46100E4F4DAF4DEC4F6F4DDC4F7F42B
:1001E800F86A0800F5502D6E2E6A36C52FF537C50A
:1001F80030F5A5EC01F06100E0F4D9F46100E4F415
:10020800DAF4DE2A000EDD22CED7AC90000E2B6E7B
:10021800000E2C6E83EC03F0AC92000E2B6E000ED9
:100228002C6E7EEC03F0AC94000E2B6E000E2C6E40
:100238008DEC03F0AC96000E2B6E000E2C6E79EC54
:1002480003F0000E0201A16F000EA26F000EA36F53
:10025800000EA46F000EA56F000EA66F000EA76F0C
:10026800000EA86F000EA96F000EAA6F300EAB6FBC
:10027800800EAC6F000EAD6F9F0EAE6F010EAF6FAC
:10028800000EB06F000EB16F000EB26F000EB36FAC
:10029800000E2B6E000E2C6E92EC03F0000E2B6EEF
:1002A800000E2C6E88EC03F0000E2B6E000E2C6EE8
:1002B80097EC03F0000E236E1200000EBE6E000EC7
:1002C800BF6E220EC06E3F0EC66E700EC76EFD0E5C
:1002D800C86E000E0401006F800E086F220E106FAA
:1002E800300E016F000E096F230E116F000E026FA2
:1002F800000E0A6F000E126F370E036FF00E0B6FB1
:1003080013693F0E046FF00E0C6F14690D0E020195
:10031800726F100E486F100E106F000E0401056FFB
:10032800000E066F000E076F000E0D6F000E0E6FA9
:10033800000E0F6F000E156F000E166F000E176F70
:1003480012002F503010D8B404D02F503010D8A439
:1003580004D02D50B0EC03F0120020EE04F02F5022
:10036800D9263050DA22DE50DE10D8B416D020EE6E
:1003780004F02F50D9263050DA2210EE02F02F5018
:10038800E1263050E222DE50E65CE650800A356E07
:10039800DE50800A3558D8B0120020EE02F02F50F7
:1003A800D9263050DA22DE2A000EDD2212002D6E08
:1003B8002D502E6E2F6A2EBE2F062FBE12002F50E4
:1003C80003E12E04D8A01200C092150E2C6E4B0E1D
:1003D8002B6EBE0EE82EFED72B2EFCD72C2EFAD76E
:1003E80000D0C082150E2C6E4B0E2B6EBE0EE82E62
:1003F800FED72B2EFCD72C2EFAD700D02E06D8A04D
:100408002F062FBE12002F50DFE12E04D8A01200B5
:10041800DBD73EC542F53FC543F5000E1A6E000E08
:10042800196E12D03CC536F53DC537F5420E386E0B
:10043800050E396E40C53AF541C53BF591EC00F023
:100448003650192637501A22610008F5F6F4610073
:100458000CF5F7F4F86A0800F5500009D8A4E2D7BB
:1004680019C53CF51AC53DF51200700E446EFF0E15
:10047800456E15EC03F0DE0E446EFE0E456E15EC6F
:1004880003F05D0E446EFD0E456E15EC03F02D0E67
:10049800446EFE0E456E15EC03F0A70E446EFD0E7D
:1004A800456E15EC03F01200000E0001D56F0A0E20
:1004B800D76F100ED86F000ED96F000EDA6F000ECE
:1004C800DB6F020EDC6F000EDD6F000EDE6F000EBC
:1004D800DF6F000ED46F9E0ED66FB39AA88A1200F3
:1004E800D69AB490D680000E2B6E000E2C6EABEC14
:1004F80003F0B990D682000E2B6E000E2C6EA6EC7F
:1005080003F0BD90D684000E2B6E000E2C6EA1EC6D
:1005180003F01200480E446EFF0E456E15EC03F012
:10052800BA0E446EFF0E456E15EC03F00001A39F52
:10053800000EA46F020EA56F010EA66FA80EA36F82
:100548001200ED0E446EFD0E456E15EC03F0BA0E6A
:10055800446EFF0E456E15EC03F00001A39F5F0E7D
:10056800A46F120EA56F810EA66FA00EA36F1200C6
:10057800690E446EFE0E456E15EC03F0970E446E40
:10058800FF0E456E15EC03F00001A39F5A0EA46FF1
:10059800130EA56F800EA66FA00EA36F1200A50EF6
:1005A800446EFE0E456E15EC03F0150E446EFF0EFC
:1005B800456E15EC03F00001A39F020EA46F220EF6
:1005C800A56F010EA66FA00EA36F120001EE60F1D9
:1005D800200EEE6AE806FDE101EE01F12A0EEE6A50
:1005E800E806FDE10401080E5D6F000E5E6F000E67
:1005F8005F6F00010FEF00F0040E0301206F130E70
:100608001F6F000E216FC10E1D6F000E1C6F000EB4
:100618002B6E000E2C6E9CEC03F0B696B00E1E6F7F
:100628001200460E486E050E496E000E3C6E000E16
:100638003D6E44C53EF545C53FF5480E406E050E76
:10064800416E0DEC02F01200600E0001AD6F700EED
:10065800AE6F000EAF6F000EB36F080EB16F000ED5
:10066800B26F000EB06F000EAC6F1200020E0001E8
:10067800A46F220EA56F010EA66F000EA76F000EC5
:10068800A96FC00EA36F04010085108510871200A2
:10069800CEA803D02B6A2B2A01D02B6ACEAA02D06F
:1006A800010E01D0000E020DF3502B242C6E2C28C5
:1006B8005E6E120009EC01F074EC02F028EC03F015
:1006C80000EC03F058EC02F061EC01F012002B6E24
:1006D800B7A2FED76100ACF4A3F21200A8AA1100D9
:1006E800B3AA1100B5EC03F011002BC556F52CC5C3
:1006F80057F512002BC55AF52CC55BF512002BC512
:100708005CF52CC55DF512002BC54EF52CC54FF5D3
:1007180012002BC558F52CC559F512002BC550F5FC
:100728002CC551F512002BC54CF52CC54DF5120002
:100738002BC552F52CC553F512002BC580F52CC5D9
:1007480081F512002BC582F52CC583F512002BC547
:1007580054F52CC555F512002C6E2C506BEC03F09B
:0A0768001200B39A010E2A6E12006F
:10FD36000012020000D606000000002E072407105D
:10FD460007000000000000000000000006000000A0
:10FD56000000003807000050726573732053573057
:10FD66002061667465722073656C656374696E677D
:10FD7600206D6F6465206F66206F706572617469AF
:10FD86006F6E20746F207265636F6E666967757239
:10FD960065204F5041206D6F64756C652E200D0AED
:10FDA600002D2D2D2D2D2D2D2D2D2D2D2D2D2D2DAA
:10FDB6002D2D2D2D2D2D2D2D2D2D2D2D2D2D2D2D6D
:10FDC6002D2D2D2D2D2D2D2D2D2D2D2D2D2D2D2D5D
:10FDD6002D2D2D2D2D2D2D2D2D2D2D2D2D2D2D2D4D
:10FDE6002D2D2D2D0D0A004F504120436F6E666953
:10FDF6006775726174696F6E3A204E6F6E2D496E2B
:10FE060076657274696E672050726F6772616D6D88
:10FE160061626C65204761696E20416D706C696630
:10FE2600696572200D0A00506C6561736520726504
:10FE360066657220746F20696E636C7564656420F4
:10FE4600726561646D652E6D6420666F72206D6FDC
:10FE5600726520696E666F726D6174696F6E2E20B1
:10FE66000D0A004F504120436F6E666967757261D7
:10FE760074696F6E3A20496E76657274696E672092
:10FE860050726F6772616D6D61626C652047616962
:10FE96006E20416D706C6966696572200D0A004FAF
:10FEA600504120436F6E66696775726174696F6E43
:10FEB6003A2044697265637420436F6E6E6563749D
:10FEC600696F6E20746F2045787465726E616C2060
:10FED60050696E73200D0A0053656C656374204F7C
:10FEE6005041206D6F6465206F66206F706572618A
:10FEF60074696F6E207573696E672070696E732002
:10FF060052413420616E64205241352E0D0A004F55
:10FF16005041314F5554203D20524332207C204FD2
:10FF2600504131494E2B203D20524333207C204FF7
:10FF3600504131494E2D203D20524132200D0A0DAF
:10FF46000A004F504120436F6E666967757261748F
:10FF5600696F6E3A20556E697479204761696E2023
:10FF6600427566666572200D0A005049433138466F
:10FF7600313651343120437572696F736974792053
:10FF86004E616E6F204F50412044656D6F200D0A03
:10FF9600004F5041314F5554203D20524332207C72
:10FFA600204F504131494E2D203D20524132200DE7
:10FFB6000A0D0A004F5041314F5554203D205243FF
:10FFC60032207C204F504131494E2B203D20524358
:10FFD60033200D0A0D0A004F504120436F6E6669AB
:10FFE6006775726174696F6E20496E70757420450D
:0AFFF60072726F7221200D0A0000E4
:020000040020DA
:10000000FF0FFF0FFF0FFF0FFF0FFF0FFF0FFF0F80
:10001000FF0FFF0FFF0FFF0FFF0FFF0FFF0FFF0F70
:020000040030CA
:0A000000FCFFF7FF9FFFFFFFFFFF6B
:00000001FF
