:020000040000FA
:040000000DEF00F010
:04000800E8EF03F02A
:10001800FF0085EF03F0F9EC03F0D6EC03F0D68E81
:10002800BAEC02F00FEC03F0BCEF00F02150221004
:10003800D8A421EF00F023EF00F02EEF00F05E507F
:1000480048EC02F06EEC03F0000E226E010E216EF9
:100058003EEF00F02A04D8A434EF00F036EF00F0A9
:100068003EEF00F0000E2A6E000E226E000E216E8A
:100078000FEC03F00300BCEF00F021502210D8A4CD
:1000880048EF00F04AEF00F055EF00F05E5048EC02
:1000980002F029EC03F0000E226E010E216E65EFCE
:1000A80000F02A04D8A45BEF00F05DEF00F065EFE4
:1000B80000F0000E2A6E000E226E000E216E0FEC6C
:1000C80003F00300BCEF00F021502210D8A46FEF1A
:1000D80000F071EF00F07CEF00F05E5048EC02F0A9
:1000E80040EC03F0000E226E010E216E8CEF00F042
:1000F8002A04D8A482EF00F084EF00F08CEF00F01F
:10010800000E2A6E000E226E000E216E0FEC03F018
:100118000300BCEF00F021502210D8A496EF00F0A5
:1001280098EF00F0A3EF00F05E5048EC02F057ECB7
:1001380003F0000E226E010E216EB3EF00F02A04C8
:10014800D8A4A9EF00F0ABEF00F0B3EF00F0000E79
:100158002A6E000E226E000E216E0FEC03F00300D3
:10016800BCEF00F0DD0E446EFF0E456EB1EC03F0FF
:100178005E504A6E4B6A4B50000AD8B4C6EF00F086
:10018800B6EF00F04A50010AD8B41AEF00F0030A9B
:10019800D8B441EF00F0010AD8B468EF00F0070ABC
:1001A800D8B48FEF00F0B6EF00F00DEF00F061006B
:1001B800E0F4D9F46100E4F4DAF4DEC4F6F4DDC462
:1001C800F7F4F86A0800F550250AD8A4EEEF00F015
:1001D800F0EF00F040EF01F06100E0F4D9F46100C5
:1001E800E4F4DAF4DE2A000EDD22000E1C6E000EA6
:1001F8001B6E1BC51FF51CC520F51D681E68610018
:10020800E0F4D9F46100E4F4DAF4DEC4F6F4DDC411
:10021800F7F4F86A0800F550250AD8A416EF01F09B
:1002280018EF01F031EF01F06100E0F4D9F461005A
:10023800E4F4DAF4DE2A000EDD22000E2E6E250E1E
:100248002D6E36C52FF537C530F5B9EC01F0000E27
:10025800376E010E366E60EF01F06100E0F4D9F4FC
:100268006100E4F4DAF4DE2A000EDD22000E376EB7
:10027800000E366E60EF01F06100E0F4D9F4610021
:10028800E4F4DAF4DEC4F6F4DDC4F7F4F86A08003E
:10029800F5502D6E2E6A36C52FF537C530F5B9ECF9
:1002A80001F06100E0F4D9F46100E4F4DAF4DE2A44
:1002B800000EDD222BEF01F01200AC90000E2B6E29
:1002C800000E2C6E1CEC04F0AC92000E2B6E000E8F
:1002D8002C6E17EC04F0AC94000E2B6E000E2C6EF6
:1002E80026EC04F0AC96000E2B6E000E2C6E12EC71
:1002F80004F0000E0201A16F000EA26F000EA36FA2
:10030800000EA46F000EA56F000EA66F000EA76F5B
:10031800000EA86F000EA96F000EAA6F300EAB6F0B
:10032800800EAC6F000EAD6F9F0EAE6F010EAF6FFB
:10033800000EB06F000EB16F000EB26F000EB36FFB
:10034800000E2B6E000E2C6E2BEC04F0000E2B6EA4
:10035800000E2C6E21EC04F0000E2B6E000E2C6E9D
:1003680030EC04F0000E236E12002F503010D8B479
:10037800C0EF01F0C2EF01F0CBEF01F02F503010C9
:10038800D8A4C9EF01F0CBEF01F0D0EF01F02D5068
:1003980049EC04F003EF02F020EE04F02F50D926C8
:1003A8003050DA22DE50DE10D8B4DDEF01F0DFEF96
:1003B80001F0FAEF01F020EE04F02F50D92630506A
:1003C800DA2210EE02F02F50E1263050E222DE5001
:1003D800E65CE650800A356EDE50800A3558D8B0A3
:1003E800F8EF01F0FAEF01F003EF02F020EE02F06F
:1003F8002F50D9263050DA22DE2A000EDD221200D4
:10040800000EBE6E000EBF6E220EC06E3F0EC66E90
:10041800700EC76EFD0EC86E000E0401006F800ED0
:10042800086F220E106F300E016F000E096F230E39
:10043800116F000E026F000E0A6F000E126F370E5A
:10044800036FF00E0B6F13693F0E046FF00E0C6F05
:1004580014690D0E0201726F100E486F100E106FA6
:10046800000E0401056F000E066F000E076F000EE8
:100478000D6F000E0E6F000E0F6F000E156F000E41
:10048800166F000E176F12002D6E2D502E6E2F6AEC
:100498002EBE2F062FBE5BEF02F02F5006E12E0472
:1004A800D8B059EF02F05BEF02F05DEF02F087EF92
:1004B80002F0C092150E2C6E4B0E2B6EBE0EE82E5F
:1004C800FED72B2EFCD72C2EFAD700D0C082150EC3
:1004D8002C6E4B0E2B6EBE0EE82EFED72B2EFCD7A5
:1004E8002C2EFAD700D02E06D8A02F062FBE87EFC5
:1004F80002F02F5006E12E04D8B085EF02F087EF06
:1005080002F05DEF02F012003EC542F53FC543F52B
:10051800000E1A6E000E196EA4EF02F03CC536F5F7
:100528003DC537F5420E386E050E396E40C53AF5B1
:1005380041C53BF5DBEC00F03650192637501A223E
:10054800610008F5F6F461000CF5F7F4F86A0800A4
:10055800F5500009D8A4B3EF02F0B5EF02F092EF1E
:1005680002F019C53CF51AC53DF51200700E446E2F
:10057800FF0E456EB1EC03F0DE0E446EFE0E456EC6
:10058800B1EC03F05D0E446EFD0E456EB1EC03F068
:100598002D0E446EFE0E456EB1EC03F0A70E446EB0
:1005A800FD0E456EB1EC03F01200000E0001D56F90
:1005B8000A0ED76F100ED86F000ED96F000EDA6FC3
:1005C800000EDB6F020EDC6F000EDD6F000EDE6FBB
:1005D800000EDF6F000ED46F9E0ED66FB39AA88AF6
:1005E8001200D69AB490D680000E2B6E000E2C6E98
:1005F80044EC04F0B990D682000E2B6E000E2C6EDF
:100608003FEC04F0BD90D684000E2B6E000E2C6ECD
:100618003AEC04F01200CEB814EF03F018EF03F030
:100628002B6A2B2A19EF03F02B6ACEBA1EEF03F0C0
:1006380021EF03F0010E22EF03F0000E020DF3503C
:100648002B242C6E2C285E6E1200480E446EFF0E72
:10065800456EB1EC03F0BA0E446EFF0E456EB1EC78
:1006680003F00001A39F000EA46F020EA56F010EF8
:10067800A66FA80EA36F1200ED0E446EFD0E456E18
:10068800B1EC03F0BA0E446EFF0E456EB1EC03F008
:100698000001A39F5F0EA46F120EA56F810EA66FB7
:1006A800A00EA36F1200690E446EFE0E456EB1ECEB
:1006B80003F0970E446EFF0E456EB1EC03F0000197
:1006C800A39F5A0EA46F130EA56F800EA66FA00EDF
:1006D800A36F1200A50E446EFE0E456EB1EC03F03A
:1006E800150E446EFF0E456EB1EC03F00001A39F9A
:1006F800020EA46F220EA56F010EA66FA00EA36FA7
:10070800120001EE60F1200EEE6AE806FDE101EE4E
:1007180001F12A0EEE6AE806FDE10401080E5D6F9C
:10072800000E5E6F000E5F6F00010FEF00F0040E09
:100738000301206F130E1F6F000E216FC10E1D6F76
:10074800000E1C6F000E2B6E000E2C6E35EC04F0A4
:10075800B696B00E03011E6F1200460E486E050EC7
:10076800496E000E3C6E000E3D6E44C53EF545C513
:100778003FF5480E406E050E416E88EC02F01200FF
:10078800600E0001AD6F700EAE6F000EAF6F000E01
:10079800B36F080EB16F000EB26F000EB06F000E8F
:1007A800AC6F1200020E0001A46F220EA56F010E9D
:1007B800A66F000EA76F000EA96FC00EA36F0401ED
:1007C8000085108510871200A8AAEDEF03F0EFEF5F
:1007D80003F0F8EF03F0B3AAF4EF03F0F6EF03F039
:1007E800F8EF03F04EEC04F0110061EC01F0F5ECC9
:1007F80002F0C4EC03F09BEC03F0D9EC02F004EC3B
:1008080002F012002B6EB7A20CEF04F00EEF04F00A
:1008180007EF04F06100ACF4A3F212002BC580F5D9
:100828002CC581F512002BC55AF52CC55BF51200B5
:100838002BC55CF52CC55DF512002BC54EF52CC5F6
:100848004FF512002BC582F52CC583F512002BC578
:1008580050F52CC551F512002BC54CF52CC54DF59E
:1008680012002BC552F52CC553F512002BC554F5B3
:100878002CC555F512002BC556F52CC557F5120099
:100888002BC558F52CC559F512002C6E2C5006ECCA
:0C08980004F01200B39A010E2A6E120048
:10FD360000C20200000C08000000006008560842DD
:10FD46000800000000000000000000360700000068
:10FD56000000006A08000050726573732053573024
:10FD66002061667465722073656C656374696E677D
:10FD7600206D6F6465206F66206F706572617469AF
:10FD86006F6E20746F207265636F6E666967757239
:10FD960065204F5041206D6F64756C652E200D0AED
:10FDA600002D2D2D2D2D2D2D2D2D2D2D2D2D2D2DAA
:10FDB6002D2D2D2D2D2D2D2D2D2D2D2D2D2D2D2D6D
:10FDC6002D2D2D2D2D2D2D2D2D2D2D2D2D2D2D2D5D
:10FDD6002D2D2D2D2D2D2D2D2D2D2D2D2D2D2D2D4D
:10FDE6002D2D2D2D0D0A004F504120436F6E666953
:10FDF6006775726174696F6E3A204E6F6E2D496E2B
:10FE060076657274696E672050726F6772616D6D88
:10FE160061626C65204761696E20416D706C696630
:10FE2600696572200D0A00506C6561736520726504
:10FE360066657220746F20696E636C7564656420F4
:10FE4600726561646D652E6D6420666F72206D6FDC
:10FE5600726520696E666F726D6174696F6E2E20B1
:10FE66000D0A004F504120436F6E666967757261D7
:10FE760074696F6E3A20496E76657274696E672092
:10FE860050726F6772616D6D61626C652047616962
:10FE96006E20416D706C6966696572200D0A004FAF
:10FEA600504120436F6E66696775726174696F6E43
:10FEB6003A2044697265637420436F6E6E6563749D
:10FEC600696F6E20746F2045787465726E616C2060
:10FED60050696E73200D0A0053656C656374204F7C
:10FEE6005041206D6F6465206F66206F706572618A
:10FEF60074696F6E207573696E672070696E732002
:10FF060052413420616E64205241352E0D0A004F55
:10FF16005041314F5554203D20524332207C204FD2
:10FF2600504131494E2B203D20524333207C204FF7
:10FF3600504131494E2D203D20524132200D0A0DAF
:10FF46000A004F504120436F6E666967757261748F
:10FF5600696F6E3A20556E697479204761696E2023
:10FF6600427566666572200D0A005049433138466F
:10FF7600313651343120437572696F736974792053
:10FF86004E616E6F204F50412044656D6F200D0A03
:10FF9600004F5041314F5554203D20524332207C72
:10FFA600204F504131494E2D203D20524132200DE7
:10FFB6000A0D0A004F5041314F5554203D205243FF
:10FFC60032207C204F504131494E2B203D20524358
:10FFD60033200D0A0D0A004F504120436F6E6669AB
:10FFE6006775726174696F6E20496E70757420450D
:0AFFF60072726F7221200D0A0000E4
:020000040020DA
:10000000FF0FFF0FFF0FFF0FFF0FFF0FFF0FFF0F80
:10001000FF0FFF0FFF0FFF0FFF0FFF0FFF0FFF0F70
:020000040030CA
:0A000000FCFFF7FF9FFFFFFFFFFF6B
:00000001FF
