:020000040000FA
:040000000DEF00F010
:04000800BAEF02F059
:10001800FF00A8EF03F00BEC04F0F9EC03F0D68E28
:10002800DDEC02F032EC03F0BCEF00F021502210BE
:10003800D8A421EF00F023EF00F02EEF00F05E507F
:1000480048EC02F091EC03F0000E226E010E216ED6
:100058003EEF00F02A04D8A434EF00F036EF00F0A9
:100068003EEF00F0000E2A6E000E226E000E216E8A
:1000780032EC03F00300BCEF00F021502210D8A4AA
:1000880048EF00F04AEF00F055EF00F05E5048EC02
:1000980002F04CEC03F0000E226E010E216E65EFAB
:1000A80000F02A04D8A45BEF00F05DEF00F065EFE4
:1000B80000F0000E2A6E000E226E000E216E32EC49
:1000C80003F00300BCEF00F021502210D8A46FEF1A
:1000D80000F071EF00F07CEF00F05E5048EC02F0A9
:1000E80063EC03F0000E226E010E216E8CEF00F01F
:1000F8002A04D8A482EF00F084EF00F08CEF00F01F
:10010800000E2A6E000E226E000E216E32EC03F0F5
:100118000300BCEF00F021502210D8A496EF00F0A5
:1001280098EF00F0A3EF00F05E5048EC02F07AEC94
:1001380003F0000E226E010E216EB3EF00F02A04C8
:10014800D8A4A9EF00F0ABEF00F0B3EF00F0000E79
:100158002A6E000E226E000E216E32EC03F00300B0
:10016800BCEF00F0DD0E446EFF0E456ED4EC03F0DC
:100178005E504A6E4B6A4B50000AD8B4C6EF00F086
:10018800B6EF00F04A50010AD8B41AEF00F0030A9B
:10019800D8B441EF00F0010AD8B468EF00F0070ABC
:1001A800D8B48FEF00F0B6EF00F00DEF00F061006B
:1001B800E0F4D9F46100E4F4DAF4DEC4F6F4DDC462
:1001C800F7F4F86A0800F550250AD8A4EEEF00F015
:1001D800F0EF00F040EF01F06100E0F4D9F46100C5
:1001E800E4F4DAF4DE2A000EDD22000E1C6E000EA6
:1001F8001B6E1BC51FF51CC520F51D681E68610018
:10020800E0F4D9F46100E4F4DAF4DEC4F6F4DDC411
:10021800F7F4F86A0800F550250AD8A416EF01F09B
:1002280018EF01F031EF01F06100E0F4D9F461005A
:10023800E4F4DAF4DE2A000EDD22000E2E6E250E1E
:100248002D6E36C52FF537C530F5B9EC01F0000E27
:10025800376E010E366E60EF01F06100E0F4D9F4FC
:100268006100E4F4DAF4DE2A000EDD22000E376EB7
:10027800000E366E60EF01F06100E0F4D9F4610021
:10028800E4F4DAF4DEC4F6F4DDC4F7F4F86A08003E
:10029800F5502D6E2E6A36C52FF537C530F5B9ECF9
:1002A80001F06100E0F4D9F46100E4F4DAF4DE2A44
:1002B800000EDD222BEF01F01200AC90000E2B6E29
:1002C800000E2C6E2EEC04F0AC92000E2B6E000E7D
:1002D8002C6E29EC04F0AC94000E2B6E000E2C6EE4
:1002E80038EC04F0AC96000E2B6E000E2C6E24EC4D
:1002F80004F0000E0201A16F000EA26F000EA36FA2
:10030800000EA46F000EA56F000EA66F000EA76F5B
:10031800000EA86F000EA96F000EAA6F300EAB6F0B
:10032800800EAC6F000EAD6F9F0EAE6F010EAF6FFB
:10033800000EB06F000EB16F000EB26F000EB36FFB
:10034800000E2B6E000E2C6E3DEC04F0000E2B6E92
:10035800000E2C6E33EC04F0000E2B6E000E2C6E8B
:1003680042EC04F0000E236E12002F503010D8B467
:10037800C0EF01F0C2EF01F0CBEF01F02F503010C9
:10038800D8A4C9EF01F0CBEF01F0D0EF01F02D5068
:100398005BEC04F003EF02F020EE04F02F50D926B6
:1003A8003050DA22DE50DE10D8B4DDEF01F0DFEF96
:1003B80001F0FAEF01F020EE04F02F50D92630506A
:1003C800DA2210EE02F02F50E1263050E222DE5001
:1003D800E65CE650800A356EDE50800A3558D8B0A3
:1003E800F8EF01F0FAEF01F003EF02F020EE02F06F
:1003F8002F50D9263050DA22DE2A000EDD221200D4
:10040800000EBE6E000EBF6E020EC06E3F0EC66EB0
:10041800700EC76EFD0EC86E000E0401006F000E50
:10042800086F020E106F300E016F000E096F030E79
:10043800116F000E026F000E0A6F000E126F370E5A
:10044800036FF00E0B6F13693F0E046FF00E0C6F05
:1004580014690D0E0201726F100E486F100E106FA6
:10046800000E0401056F000E066F000E076F000EE8
:100478000D6F000E0E6F000E0F6F000E156F000E41
:10048800166F000E176F12002D6E2D502E6E2F6AEC
:100498002EBE2F062FBE5BEF02F02F5006E12E0472
:1004A800D8B059EF02F05BEF02F05DEF02F087EF92
:1004B80002F0C092150E2C6E4B0E2B6EBE0EE82E5F
:1004C800FED72B2EFCD72C2EFAD700D0C082150EC3
:1004D8002C6E4B0E2B6EBE0EE82EFED72B2EFCD7A5
:1004E8002C2EFAD700D02E06D8A02F062FBE87EFC5
:1004F80002F02F5006E12E04D8B085EF02F087EF06
:1005080002F05DEF02F012003EC542F53FC543F52B
:10051800000E1A6E000E196EA4EF02F03CC536F5F7
:100528003DC537F5420E386E050E396E40C53AF5B1
:1005380041C53BF5DBEC00F03650192637501A223E
:10054800610008F5F6F461000CF5F7F4F86A0800A4
:10055800F5500009D8A4B3EF02F0B5EF02F092EF1E
:1005680002F019C53CF51AC53DF51200A8AEBFEF5B
:1005780002F0C1EF02F0CCEF02F0B3AEC6EF02F02A
:10058800C8EF02F0CCEF02F064EC04F0DCEF02F00C
:10059800A8AAD1EF02F0D3EF02F0DCEF02F0B3AA81
:1005A800D8EF02F0DAEF02F0DCEF02F060EC04F0D2
:1005B8001100700E446EFF0E456ED4EC03F0DE0E93
:1005C800446EFE0E456ED4EC03F05D0E446EFD0ED7
:1005D800456ED4EC03F02D0E446EFE0E456ED4EC41
:1005E80003F0A70E446EFD0E456ED4EC03F0120026
:1005F800000E0001D56F0A0ED76F100ED86F000ECF
:10060800D96F000EDA6F000EDB6F080EDC6F000E7C
:10061800DD6F000EDE6F000EDF6F000ED46F9E0ED2
:10062800D66FB39AA88A1200D69AB490D680000ED4
:100638002B6E000E2C6E56EC04F0B990D682000E8C
:100648002B6E000E2C6E51EC04F0BD90D684000E7B
:100658002B6E000E2C6E4CEC04F01200CEB837EF67
:1006680003F03BEF03F02B6A2B2A3CEF03F02B6AD5
:10067800CEBA41EF03F044EF03F0010E45EF03F06B
:10068800000E020DF3502B242C6E2C285E6E1200E7
:10069800480E446EFF0E456ED4EC03F0BA0E446E5D
:1006A800FF0E456ED4EC03F00001A39F000EA46F6B
:1006B800020EA56F010EA66FC80EA36F1200ED0EF5
:1006C800446EFD0E456ED4EC03F0BA0E446EFF0E78
:1006D800456ED4EC03F00001A39F5F0EA46F120EC9
:1006E800A56F810EA66FC00EA36F1200690E446E2F
:1006F800FE0E456ED4EC03F0970E446EFF0E456E69
:10070800D4EC03F00001A39F5A0EA46F130EA56F3B
:10071800800EA66FC00EA36F1200A50E446EFE0ECB
:10072800456ED4EC03F0150E446EFF0E456ED4EC06
:1007380003F00001A39F020EA46F220EA56F010E05
:10074800A66FC00EA36F120001EE60F1200EEE6AD4
:10075800E806FDE101EE01F12A0EEE6AE806FDE188
:100768000401080E5D6F000E5E6F000E5F6F0001E2
:100778000FEF00F0040E0301206F110E1F6F000E23
:10078800216FC10E1D6F000E1C6F000E2B6E000E28
:100798002C6E47EC04F0B696B00E03011E6F1200E3
:1007A800460E486E050E496E000E3C6E000E3D6EFC
:1007B80044C53EF545C53FF5480E406E050E416EF1
:1007C80088EC02F01200600E0001AD6F700EAE6F83
:1007D800000EAF6F000EB36F080EB16F000EB26F50
:1007E800000EB06F000EAC6F1200020E0001A46F75
:1007F800220EA56F010EA66F000EA76F000EA96F3F
:10080800C00EA36F0401008510851087120061ECEB
:1008180001F018EC03F0E7EC03F0BEEC03F0FCEC9D
:1008280002F004EC02F012002B6EB7A21EEF04F0E7
:1008380020EF04F019EF04F06100ACF4A3F2120009
:100848002BC580F52CC581F512002BC55AF52CC592
:100858005BF512002BC55CF52CC55DF512002BC5A8
:100868004EF52CC54FF512002BC582F52CC583F526
:1008780012002BC550F52CC551F512002BC54CF5AF
:100888002CC54DF512002BC552F52CC553F5120099
:100898002BC554F52CC555F512002BC556F52CC59E
:1008A80057F512002BC558F52CC559F512002C6EBA
:1008B8002C5018EC04F01200B39A010E2A6E1200A4
:0208C80012001C
:10FD360000C202000030080000000084087A08664D
:10FD460008000000000000000000007C0700000022
:10FD56000000008E08000050726573732053573000
:10FD66002061667465722073656C656374696E677D
:10FD7600206D6F6465206F66206F706572617469AF
:10FD86006F6E20746F207265636F6E666967757239
:10FD960065204F5041206D6F64756C652E200D0AED
:10FDA600002D2D2D2D2D2D2D2D2D2D2D2D2D2D2DAA
:10FDB6002D2D2D2D2D2D2D2D2D2D2D2D2D2D2D2D6D
:10FDC6002D2D2D2D2D2D2D2D2D2D2D2D2D2D2D2D5D
:10FDD6002D2D2D2D2D2D2D2D2D2D2D2D2D2D2D2D4D
:10FDE6002D2D2D2D0D0A004F504120436F6E666953
:10FDF6006775726174696F6E3A204E6F6E2D496E2B
:10FE060076657274696E672050726F6772616D6D88
:10FE160061626C65204761696E20416D706C696630
:10FE2600696572200D0A00506C6561736520726504
:10FE360066657220746F20696E636C7564656420F4
:10FE4600726561646D652E6D6420666F72206D6FDC
:10FE5600726520696E666F726D6174696F6E2E20B1
:10FE66000D0A004F504120436F6E666967757261D7
:10FE760074696F6E3A20496E76657274696E672092
:10FE860050726F6772616D6D61626C652047616962
:10FE96006E20416D706C6966696572200D0A004FAF
:10FEA600504120436F6E66696775726174696F6E43
:10FEB6003A2044697265637420436F6E6E6563749D
:10FEC600696F6E20746F2045787465726E616C2060
:10FED60050696E73200D0A0053656C656374204F7C
:10FEE6005041206D6F6465206F66206F706572618A
:10FEF60074696F6E207573696E672070696E732002
:10FF060052413420616E64205241352E0D0A004F55
:10FF16005041314F5554203D20524332207C204FD2
:10FF2600504131494E2B203D20524333207C204FF7
:10FF3600504131494E2D203D20524132200D0A0DAF
:10FF46000A004F504120436F6E666967757261748F
:10FF5600696F6E3A20556E697479204761696E2023
:10FF6600427566666572200D0A005049433138466F
:10FF7600313651343120437572696F736974792053
:10FF86004E616E6F204F50412044656D6F200D0A03
:10FF9600004F5041314F5554203D20524332207C72
:10FFA600204F504131494E2D203D20524132200DE7
:10FFB6000A0D0A004F5041314F5554203D205243FF
:10FFC60032207C204F504131494E2B203D20524358
:10FFD60033200D0A0D0A004F504120436F6E6669AB
:10FFE6006775726174696F6E20496E70757420450D
:0AFFF60072726F7221200D0A0000E4
:020000040020DA
:10000000FF0FFF0FFF0FFF0FFF0FFF0FFF0FFF0F80
:10001000FF0FFF0FFF0FFF0FFF0FFF0FFF0FFF0F70
:020000040030CA
:0A000000FFFFF7FFFFFFFFFFFFFF08
:00000001FF
