:020000040000FA
:040000000DEF00F010
:0400080056EF03F0BC
:10001800FF0067EF03F045EC03F0D68E81EC02F0A9
:10002800BCEC02F0BAEF00F029502A10D8A41FEF58
:1000380000F021EF00F02CEF00F05450AAEC01F092
:100048001BEC03F0000E2A6E010E296E3CEF00F047
:100058002C04D8A432EF00F034EF00F03CEF00F0AD
:10006800000E2C6E000E2A6E000E296EBCEC02F0FB
:100078000300BAEF00F029502A10D8A446EF00F088
:1000880048EF00F053EF00F05450AAEC01F0D6EC22
:1000980002F0000E2A6E010E296E63EF00F02C04A8
:1000A800D8A459EF00F05BEF00F063EF00F0000E0A
:1000B8002C6E000E2A6E000E296EBCEC02F00300B6
:1000C800BAEF00F029502A10D8A46DEF00F06FEFB6
:1000D80000F07AEF00F05450AAEC01F0EDEC02F0D9
:1000E800000E2A6E010E296E8AEF00F02C04D8A4A7
:1000F80080EF00F082EF00F08AEF00F0000E2C6E27
:10010800000E2A6E000E296EBCEC02F00300BAEF56
:1001180000F029502A10D8A494EF00F096EF00F0D0
:10012800A1EF00F05450AAEC01F004EC03F0000E2B
:100138002A6E010E296EB1EF00F02C04D8A4A7EFA7
:1001480000F0A9EF00F0B1EF00F0000E2C6E000EE9
:100158002A6E000E296EBCEC02F00300BAEF00F024
:10016800DD0E466EFF0E476E32EC03F054504C6EB7
:100178004D6A4D50000AD8B4C4EF00F0B4EF00F057
:100188004C50010AD8B418EF00F0030AD8B43FEF76
:1001980000F0010AD8B466EF00F0070AD8B48DEF72
:1001A80000F0B4EF00F00DEF00F06100E8F4D9F4CE
:1001B8006100ECF4DAF4DEC4F6F4DDC4F7F4F86AAE
:1001C8000800F550250AD8A4ECEF00F0EEEF00F097
:1001D8003EEF01F06100E8F4D9F46100ECF4DAF4E0
:1001E800DE2A000EDD22000E246E000E236E23C5CB
:1001F80027F524C528F5256826686100E8F4D9F4B0
:100208006100ECF4DAF4DEC4F6F4DDC4F7F4F86A5D
:100218000800F550250AD8A414EF01F016EF01F0F4
:100228002FEF01F06100E8F4D9F46100ECF4DAF49E
:10023800DE2A000EDD22000E306E250E2F6E38C528
:1002480031F539C532F55FEC01F0000E396E010E5B
:10025800386E5EEF01F06100E8F4D9F46100ECF467
:10026800DAF4DE2A000EDD22000E396E000E386E3A
:100278005EEF01F06100E8F4D9F46100ECF4DAF41F
:10028800DEC4F6F4DDC4F7F4F86A0800F5502F6E02
:10029800306A38C531F539C532F55FEC01F06100D7
:1002A800E8F4D9F46100ECF4DAF4DE2A000EDD2279
:1002B80029EF01F0120031503210D8B466EF01F086
:1002C80068EF01F071EF01F031503210D8A46FEFF0
:1002D80001F071EF01F076EF01F02F50CBEC03F055
:1002E800A9EF01F020EE04F03150D9263250DA227D
:1002F800DE50DE10D8B483EF01F085EF01F0A0EFF7
:1003080001F020EE04F03150D9263250DA2210EEF6
:1003180002F03150E1263250E222DE50E65CE6502F
:10032800800A376EDE50800A3758D8B09EEF01F049
:10033800A0EF01F0A9EF01F020EE02F03150D9262C
:100348003250DA22DE2A000EDD2212002F6E2F50E4
:10035800306E316A30BE310631BEBDEF01F031502A
:1003680006E13004D8B0BBEF01F0BDEF01F0BFEFFC
:1003780001F0E9EF01F0C092150E2E6E4B0E2D6EB6
:10038800BE0EE82EFED72D2EFCD72E2EFAD700D083
:10039800C082150E2E6E4B0E2D6EBE0EE82EFED7A9
:1003A8002D2EFCD72E2EFAD700D03006D8A0310635
:1003B80031BEE9EF01F0315006E13004D8B0E7EF83
:1003C80001F0E9EF01F0BFEF01F01200000E0201A9
:1003D800A56F000EA66F000EA76F000EA86F000E87
:1003E800A96F000EAA6FB00EAB6F800EAC6F000E37
:1003F800AD6F820EAE6F060EAF6F000EB06F000EBF
:10040800B16F000EB26F000EB36F000E2D6E000EAE
:100418002E6EC1EC03F0000E2D6E000E2E6EBCEC9D
:1004280003F0000E2D6E000E2E6EC6EC03F0000ECB
:100438002B6E120040C544F541C545F5000E226EED
:10044800000E216E3AEF02F03EC538F53FC539F58A
:10045800440E3A6E050E3B6E42C53CF543C53DF56C
:10046800D9EC00F03850212639502222610010F5CD
:10047800F6F4610014F5F7F4F86A0800F55000097D
:10048800D8A449EF02F04BEF02F028EF02F021C5A3
:100498003EF522C53FF51200000EBE6E000EBF6E7F
:1004A800020EC06E3F0EC66E700EC76EFD0EC86E91
:1004B800FE0E0401106FD00E086F070E006F000EBD
:1004C800096F300E016F030E116F000E026F000EE0
:1004D8000A6F000E126F370E036FF00E0B6F136961
:1004E8003F0E046FF00E0C6F1469100E0201106FAE
:1004F800100E486F0D0E726F1200700E466EFF0ED2
:10050800476E32EC03F0DE0E466EFE0E476E32EC9E
:1005180003F05D0E466EFD0E476E32EC03F02D0EB5
:10052800466EFE0E476E32EC03F0A70E466EFD0EC9
:10053800476E32EC03F01200000E0001D56F0A0E70
:10054800D76F100ED86F140ED96F140EDA6F140E01
:10055800DB6F020EDC6F000EDD6F000EDE6F000E2B
:10056800DF6F000ED46F9E0ED66FB39AA88A120062
:10057800CEB8C1EF02F0C5EF02F02D6A2D2AC6EF02
:1005880002F02D6ACEBACBEF02F0CEEF02F0010EE8
:10059800CFEF02F0000E020DF3502D242E6E2E2800
:1005A800546E1200480E466EFF0E476E32EC03F092
:1005B800BA0E466EFF0E476E32EC03F00001A39FA1
:1005C800000EA46F020EA56F010EA66FC80EA36FD2
:1005D8001200ED0E466EFD0E476E32EC03F0BA0EB9
:1005E800466EFF0E476E32EC03F00001A39F5F0ECC
:1005F800A46F120EA56F810EA66FC00EA36F120016
:10060800690E466EFE0E476E32EC03F0970E466E8C
:10061800FF0E476E32EC03F00001A39F5A0EA46F41
:10062800130EA56F800EA66FC00EA36F1200A50E45
:10063800466EFE0E476E32EC03F0150E466EFF0E48
:10064800476E32EC03F00001A39F020EA46F220E46
:10065800A56F010EA66FC00EA36F1200480E4A6E5A
:10066800050E4B6E000E3E6E000E3F6E46C540F501
:1006780047C541F54A0E426E050E436E1EEC02F068
:100688001200D4EC03F086EC03F050EC02F094EC8A
:1006980003F0A0EC02F077EC03F0EAEC01F0A2EC36
:1006A80003F01200A8AA5BEF03F05DEF03F066EF1A
:1006B80003F0B3AA62EF03F064EF03F066EF03F010
:1006C800D0EC03F0110001EE01F12C0EEE6AE80601
:1006D800FDE10401080E5D6F000E5E6F000E5F6F96
:1006E80000010FEF00F0040E0301206F130E1F6FBF
:1006F800000E216FC10E1D6F000E1C6FB696B00E56
:100708001E6F1200000E0001636F000E646F000E72
:10071800656F000E666F000E676F000E686F12003F
:10072800600E0001AD6F000EAF6F000EB36F080EC4
:10073800B16F000EB06F000EAC6F1200020E000118
:10074800A46F220EA56F010EA66F000EA76F000EF4
:10075800A96FC00EA36F12002D6EB7A2B6EF03F0FB
:10076800B8EF03F0B1EF03F06100B4F4A3F21200A4
:100778002DC550F52EC551F512002DC552F52EC5C3
:1007880053F512002DC54EF52EC54FF512002E6EED
:100798002E50B0EC03F01200B39A010E2C6E12002A
:0407A800D69A1200CB
:10FD5C00005072657373205357302061667465725E
:10FD6C002073656C656374696E67206D6F646520C4
:10FD7C006F66206F7065726174696F6E20746F208E
:10FD8C007265636F6E666967757265204F504120AE
:10FD9C006D6F64756C652E200D0A002D2D2D2D2D8B
:10FDAC002D2D2D2D2D2D2D2D2D2D2D2D2D2D2D2D77
:10FDBC002D2D2D2D2D2D2D2D2D2D2D2D2D2D2D2D67
:10FDCC002D2D2D2D2D2D2D2D2D2D2D2D2D2D2D2D57
:10FDDC002D2D2D2D2D2D2D2D2D2D2D2D2D2D0D0A8A
:10FDEC00004F504120436F6E66696775726174698C
:10FDFC006F6E3A204E6F6E2D496E76657274696E19
:10FE0C00672050726F6772616D6D61626C6520471F
:10FE1C0061696E20416D706C6966696572200D0AAE
:10FE2C0000506C6561736520726566657220746F35
:10FE3C0020696E636C7564656420726561646D65C0
:10FE4C002E6D6420666F72206D6F726520696E6610
:10FE5C006F726D6174696F6E2E200D0A004F5041E8
:10FE6C0020436F6E66696775726174696F6E3A20B4
:10FE7C00496E76657274696E672050726F67726135
:10FE8C006D6D61626C65204761696E20416D706CAF
:10FE9C006966696572200D0A004F504120436F6EF0
:10FEAC0066696775726174696F6E3A204469726530
:10FEBC00637420436F6E6E656374696F6E20746F2C
:10FECC002045787465726E616C2050696E73200DDC
:10FEDC000A0053656C656374204F5041206D6F644C
:10FEEC0065206F66206F7065726174696F6E207526
:10FEFC0073696E672070696E732052413420616E95
:10FF0C0064205241352E0D0A004F5041314F55544B
:10FF1C00203D20524332207C204F504131494E2B02
:10FF2C00203D20524333207C204F504131494E2DEF
:10FF3C00203D20524132200D0A0D0A004F50412025
:10FF4C00436F6E66696775726174696F6E3A20559E
:10FF5C006E697479204761696E20427566666572B8
:10FF6C00200D0A0050494331384631365134312086
:10FF7C00437572696F73697479204E616E6F204F8F
:10FF8C0050412044656D6F200D0A004F5041314F98
:10FF9C005554203D20524332207C204F5041314952
:10FFAC004E2D203D20524132200D0A0D0A004F509B
:10FFBC0041314F5554203D20524332207C204F502C
:10FFCC004131494E2B203D20524333200D0A0D0A5E
:10FFDC00004F504120436F6E66696775726174699A
:10FFEC006F6E20496E707574204572726F7221208D
:04FFFC000D0A0000EA
:020000040020DA
:10000000FF0FFF0FFF0FFF0FFF0FFF0FFF0FFF0F80
:10001000FF0FFF0FFF0FFF0FFF0FFF0FFF0FFF0F70
:020000040030CA
:0A0000008CFFF7FF9FFFFFFFFFFFDB
:00000001FF
