:040000000DEF00F010
:04000800E8EF02F02B
:10001800FF00B2EF03F0C2EC03F0D68E860E3A6E04
:10002800080E3B6E3AEC04F095EC02F0CEEC02F0D0
:10003800C0EF00F025502610D8A425EF00F027EFD8
:1000480000F032EF00F03650CDEC01F046EC03F052
:10005800000E266E010E256E42EF00F03704D8A47C
:1000680038EF00F03AEF00F042EF00F0000E376E84
:10007800000E266E000E256ECEEC02F00300C0EFD7
:1000880000F025502610D8A44CEF00F04EEF00F0F9
:1000980059EF00F03650CDEC01F001EC03F0000E02
:1000A800266E010E256E69EF00F03704D8A45FEFC5
:1000B80000F061EF00F069EF00F0000E376E000EFF
:1000C800266E000E256ECEEC02F00300C0EF00F0A5
:1000D80025502610D8A473EF00F075EF00F080EFDC
:1000E80000F03650CDEC01F018EC03F0000E266E4F
:1000F800010E256E90EF00F03704D8A486EF00F0CB
:1001080088EF00F090EF00F0000E376E000E266EBC
:10011800000E256ECEEC02F00300C0EF00F0255073
:100128002610D8A49AEF00F09CEF00F0A7EF00F09B
:100138003650CDEC01F02FEC03F0000E266E010EC8
:10014800256EB7EF00F03704D8A4ADEF00F0AFEF9D
:1001580000F0B7EF00F0000E376E000E266E000EAE
:10016800256ECEEC02F00300C0EF00F0DD0E536EFA
:10017800FF0E546E9FEC03F03650576E586A585075
:10018800000AD8B4CAEF00F0BAEF00F05750010ADD
:10019800D8B41EEF00F0030AD8B445EF00F0010A06
:1001A800D8B46CEF00F0070AD8B493EF00F0BAEFB8
:1001B80000F00DEF00F03E503F10D8B4E6EF00F02D
:1001C800E8EF00F0F1EF00F03E503F10D8A4EFEF59
:1001D80000F0F1EF00F0F6EF00F03C50D1EC03F046
:1001E80043EF01F020EE0AF03E50D9263F50DA22C4
:1001F800DE50DE10D8B403EF01F005EF01F020EF78
:1002080001F020EE0AF03E50D9263F50DA2210EED7
:1002180003F03E50E1263F50E222DE50E65CE65015
:10022800800A446EDE50800A4458D8B01EEF01F0B0
:1002380020EF01F043EF01F020EE03F03E50D92605
:100248003F50DA22DEC440F5DDC441F53EC5D9F49D
:100258003FC5DAF4DEC442F5DDC443F5405042241C
:10026800D96E41504320DA6E3CC5DFF420EE03F02E
:100278003E50D9263F50DA22DE2A000EDD22120037
:10028800000EBE6E000EBF6E020EC06E3F0EC66E32
:10029800700EC76EF90EC86E070E0401006F500E7F
:1002A800086FFC0E106F300E016F000E096F010E03
:1002B800116F000E026F000E0A6F000E126F370EDC
:1002C800036FF00E0B6F13693F0E046FF00E0C6F87
:1002D8001469000E0201876F000E866F0D0E726F93
:1002E800100E486F100E106F000E0401056F000EFF
:1002F800066F000E076F000E0D6F000E0E6F000EDA
:100308000F6F000E156F000E166F000E176F12009C
:1003180047C5D9F448C5DAF4DEC4F6F4DDC4F7F409
:10032800F86A0800F550250AD8A49DEF01F09FEF60
:1003380001F0B7EF01F047C5D9F448C5DAF4DE2A71
:10034800000EDD22000E226E000E216E21C535F54D
:100358002368246847C5D9F448C5DAF4DE2A000EB4
:10036800DD22CCEF01F047C5D9F448C5DAF4DEC484
:10037800F6F4DDC4F7F4F86A0800F5503C6E3D6AFF
:1003880045C53EF546C53FF5DFEC00F0AEEF01F0A0
:1003980012003C6E3C503D6E3E6A3DBE3E063EBE7F
:1003A800E0EF01F03E5006E13D04D8B0DEEF01F089
:1003B800E0EF01F0E2EF01F00CEF02F0C092150E51
:1003C8003B6E4B0E3A6EBE0EE82EFED73A2EFCD789
:1003D8003B2EFAD700D0C082150E3B6E4B0E3A6EFC
:1003E800BE0EE82EFED73A2EFCD73B2EFAD700D009
:1003F8003D06D8A03E063EBE0CEF02F03E5006E198
:100408003D04D8B00AEF02F00CEF02F0E2EF01F081
:100418001200000E0201A16F000EA26F000EA36F62
:10042800000EA46F000EA56F000EA66F000EA76F3A
:10043800000EA86F000EA96F000EAA6FB00EAB6F6A
:10044800800EAC6F080EAD6F820EAE6F060EAF6FEA
:10045800200EB06F000EB16F800EB26F000EB36F3A
:10046800000E3A6E000E3B6EFCEC03F0000E3A6E86
:10047800000E3B6EEEEC03F0000E3A6E000E3B6E83
:10048800E0EC03F0000E2E6E000E2D6E12004DC52E
:1004980051F54EC552F55FEF02F04BC545F54CC519
:1004A80046F5510E476E050E486E4FC549F550C5C5
:1004B8004AF58CEC01F051C5F6F452C5F7F4F86A28
:1004C8000800F5500009D8A46CEF02F06EEF02F0B6
:1004D80051EF02F0000E4C6E000E4B6E1200000E33
:1004E8000001D56F0A0ED76F100ED86F000ED96FA6
:1004F800000EDA6F000EDB6F020EDC6F000EDD6F90
:10050800000EDE6F000EDF6F000ED46F9E0ED66FEA
:10051800B39A8C0E3A6E080E3B6E3AEC04F0A88A39
:100528001200700E536EFF0E546E9FEC03F0DE0E39
:10053800536EFE0E546E9FEC03F05D0E536EFD0E6F
:10054800546E9FEC03F02D0E536EFE0E546E9FEC0E
:1005580003F0A70E536EFD0E546E9FEC03F01200CD
:10056800D69AB490D680000E3A6E000E3B6E35ECEB
:1005780004F0B990D682000E3A6E000E3B6E30EC55
:1005880004F0BD90D684000E3A6E000E3B6E2BEC44
:1005980004F01200CEB8D3EF02F0D7EF02F03A6AB7
:1005A8003A2AD8EF02F03A6ACEBADDEF02F0E0EF6D
:1005B80002F0010EE1EF02F0000E020DF3503A24B2
:1005C8003B6E3B28366E1200FAC438F5FBC439F589
:1005D800A8AAF1EF02F0F3EF02F0FCEF02F0B3AAE1
:1005E800F8EF02F0FAEF02F0FCEF02F05DEC03F036
:1005F80039C5FBF438C5FAF41100480E536EFF0EE6
:10060800546E9FEC03F0BA0E536EFF0E546E9FECBF
:1006180003F00001A39F000EA46F020EA56F010E48
:10062800A66FA80EA36F1200ED0E536EFD0E546E4A
:100638009FEC03F0BA0E536EFF0E546E9FEC03F05E
:100648000001A39F5F0EA46F120EA56F810EA66F07
:10065800A00EA36F1200690E536EFE0E546E9FEC2F
:1006680003F0970E536EFF0E546E9FEC03F00001DB
:10067800A39F5A0EA46F130EA56F800EA66FA00E2F
:10068800A36F1200A50E536EFE0E546E9FEC03F07E
:10069800150E536EFF0E546E9FEC03F00001A39FDE
:1006A800020EA46F220EA56F010EA66FA00EA36FF7
:1006B8001200B39A5B505C10D8B465EF03F067EF93
:1006C80003F073EF03F002D873EF03F00500FA6E3E
:1006D8005B50FD6E5C50FE6EFF6AFA50120012000D
:1006E800040E0301206F130E1F6F000E216FC10E41
:1006F8001D6F000E1C6F000E3A6E000E3B6E26EC4E
:1007080004F0B696B00E03011E6F1200000E3A6E8A
:100718000201B0AB92EF03F094EF03F09DEF03F00A
:10072800ABAB99EF03F09BEF03F09DEF03F0010EE5
:100738003A6E3A501200550E556E050E566E000E62
:100748004B6E000E4C6E53C54DF554C54EF5550E07
:100758004F6E050E506E4BEC02F0120001EE01F1E7
:10076800370EEE6AE806FDE10401080E5D6F000E23
:100778005E6F000E5F6F00010FEF00F018EC04F0E1
:1007880044EC01F073EC02F00AEC04F074EC03F0B2
:100798000DEC02F0B4EC02F012003B6E8AEC03F0B0
:1007A8000009D8B4DAEF03F0DCEF03F0D2EF03F07E
:1007B8003B503FEC04F012003A503B10D8B4E7EF3E
:1007C80003F0E9EF03F0EDEF03F03AC527F53BC579
:1007D80028F512003A503B10D8B4F5EF03F0F7EFC4
:1007E80003F0FBEF03F03AC529F53BC52AF51200E3
:1007F8003A503B10D8B403EF04F005EF04F009EFCA
:1008080004F03AC52BF53BC52CF51200590E000132
:10081800A46F220EA56F820EA66F000EA76F000EA2
:10082800A96F800EA36F1200600E0001AD6F000E5D
:10083800AF6F000EB36F080EB16F000EB06F000EF1
:10084800AC6F12003AC559F53BC55AF512003AC5C6
:100858002FF53BC530F512003AC531F53BC532F5E9
:1008680012003AC533F53BC534F512003AC55BF5BD
:100878003BC55CF512003A6E3AC5A3F21200010EB0
:06088800376E12001200A1
:10FD2000001A04000000007E080000140700000014
:10FD300000000000000000000000000000000000C3
:10FD4000000000000000000000F807DC07C007000A
:10FD500000E8060000000000004C0800005072653A
:10FD60007373205357302061667465722073656C1D
:10FD7000656374696E67206D6F6465206F66206FC0
:10FD80007065726174696F6E20746F207265636F45
:10FD90006E666967757265204F5041206D6F64759E
:10FDA0006C652E200D0A002D2D2D2D2D2D2D2D2D88
:10FDB0002D2D2D2D2D2D2D2D2D2D2D2D2D2D2D2D73
:10FDC0002D2D2D2D2D2D2D2D2D2D2D2D2D2D2D2D63
:10FDD0002D2D2D2D2D2D2D2D2D2D2D2D2D2D2D2D53
:10FDE0002D2D2D2D2D2D2D2D2D2D0D0A004F50415A
:10FDF00020436F6E66696775726174696F6E3A2031
:10FE00004E6F6E2D496E76657274696E6720507202
:10FE10006F6772616D6D61626C65204761696E200C
:10FE2000416D706C6966696572200D0A00506C65E1
:10FE300061736520726566657220746F20696E63F8
:10FE40006C7564656420726561646D652E6D6420F7
:10FE5000666F72206D6F726520696E666F726D617C
:10FE600074696F6E2E200D0A004F504120436F6E53
:10FE700066696775726174696F6E3A20496E76655E
:10FE80007274696E672050726F6772616D6D616226
:10FE90006C65204761696E20416D706C69666965AB
:10FEA00072200D0A004F504120436F6E66696775DE
:10FEB000726174696F6E3A2044697265637420439D
:10FEC0006F6E6E656374696F6E20746F2045787411
:10FED00065726E616C2050696E73200D0A00536567
:10FEE0006C656374204F5041206D6F6465206F66B0
:10FEF000206F7065726174696F6E207573696E67CB
:10FF00002070696E732052413420616E642052412A
:10FF1000352E0D0A004F5041314F5554203D20528F
:10FF20004332207C204F504131494E2B203D2052FE
:10FF30004333207C204F504131494E2D203D2052EB
:10FF40004132200D0A0D0A004F504120436F6E666A
:10FF5000696775726174696F6E3A20556E6974795C
:10FF6000204761696E20427566666572200D0A0041
:10FF70005049433138463136513431204375726926
:10FF80006F73697479204E616E6F204F5041204429
:10FF9000656D6F200D0A004F5041314F5554203D83
:10FFA00020524332207C204F504131494E2D203D7C
:10FFB00020524132200D0A0D0A004F5041314F5559
:10FFC00054203D20524332207C204F504131494E35
:10FFD0002B203D20524333200D0A0D0A004F504183
:10FFE00020436F6E66696775726174696F6E204930
:10FFF0006E707574204572726F7221200D0A0000B8
:020000040030CA
:09000000FCFFF7FF9FFFFFFFFF6B
:00000001FF
