:020000040000FA
:040000000DEF00F010
:0400080062EF03F0B0
:10001800FF0073EF03F051EC03F0D68EA7EC02F06B
:1000280082EC02F0BAEF00F029502A10D8A41FEF92
:1000380000F021EF00F02CEF00F04E50ABEC01F097
:1000480027EC03F0000E2A6E010E296E3CEF00F03B
:100058002C04D8A432EF00F034EF00F03CEF00F0AD
:10006800000E2C6E000E2A6E000E296E82EC02F035
:100078000300BAEF00F029502A10D8A446EF00F088
:1000880048EF00F053EF00F04E50ABEC01F0E2EC1B
:1000980002F0000E2A6E010E296E63EF00F02C04A8
:1000A800D8A459EF00F05BEF00F063EF00F0000E0A
:1000B8002C6E000E2A6E000E296E82EC02F00300F0
:1000C800BAEF00F029502A10D8A46DEF00F06FEFB6
:1000D80000F07AEF00F04E50ABEC01F0F9EC02F0D2
:1000E800000E2A6E010E296E8AEF00F02C04D8A4A7
:1000F80080EF00F082EF00F08AEF00F0000E2C6E27
:10010800000E2A6E000E296E82EC02F00300BAEF90
:1001180000F029502A10D8A494EF00F096EF00F0D0
:10012800A1EF00F04E50ABEC01F010EC03F0000E24
:100138002A6E010E296EB1EF00F02C04D8A4A7EFA7
:1001480000F0A9EF00F0B1EF00F0000E2C6E000EE9
:100158002A6E000E296E82EC02F00300BAEF00F05E
:10016800DD0E466EFF0E476E3EEC03F04EC54CF5B5
:100178004FC54DF54D50000AD8B4C5EF00F0B4EFA7
:1001880000F04C50010AD8B418EF00F0030AD8B4B4
:100198003FEF00F0010AD8B466EF00F0070AD8B4C0
:1001A8008DEF00F0B4EF00F00DEF00F06100E8F41F
:1001B800D9F46100ECF4DAF4DEC4F6F4DDC4F7F443
:1001C800F86A0800F550250AD8A4EDEF00F0EFEF23
:1001D80000F03FEF01F06100E8F4D9F46100ECF4BD
:1001E800DAF4DE2A000EDD22000E246E000E236EE5
:1001F80023C527F524C528F5256826686100E8F495
:10020800D9F46100ECF4DAF4DEC4F6F4DDC4F7F4F2
:10021800F86A0800F550250AD8A415EF01F017EF81
:1002280001F030EF01F06100E8F4D9F46100ECF47A
:10023800DAF4DE2A000EDD22000E306E250E2F6E57
:1002480038C531F539C532F560EC01F0000E396E6C
:10025800010E386E5FEF01F06100E8F4D9F4610037
:10026800ECF4DAF4DE2A000EDD22000E396E000E00
:10027800386E5FEF01F06100E8F4D9F46100ECF446
:10028800DAF4DEC4F6F4DDC4F7F4F86A0800F550D1
:100298002F6E306A38C531F539C532F560EC01F09A
:1002A8006100E8F4D9F46100ECF4DAF4DE2A000E17
:1002B800DD222AEF01F0120031503210D8B467EF76
:1002C80001F069EF01F072EF01F031503210D8A45B
:1002D80070EF01F072EF01F077EF01F02F50D7ECDB
:1002E80003F0AAEF01F020EE04F03150D926325085
:1002F800DA22DE50DE10D8B484EF01F086EF01F088
:10030800A1EF01F020EE04F03150D9263250DA2264
:1003180010EE02F03150E1263250E222DE50E65C67
:10032800E650800A376EDE50800A3758D8B09FEF03
:1003380001F0A1EF01F0AAEF01F020EE02F0315038
:10034800D9263250DA22DE2A000EDD2212002F6E64
:100358002F50306E316A30BE310631BEBEEF01F02B
:10036800315006E13004D8B0BCEF01F0BEEF01F027
:10037800C0EF01F0EAEF01F0C092150E2E6E4B0EA1
:100388002D6EBE0EE82EFED72D2EFCD72E2EFAD7B8
:1003980000D0C082150E2E6E4B0E2D6EBE0EE82EAE
:1003A800FED72D2EFCD72E2EFAD700D03006D8A097
:1003B800310631BEEAEF01F0315006E13004D8B021
:1003C800E8EF01F0EAEF01F0C0EF01F01200000ED3
:1003D8000201A56F000EA66F000EA76F000EA86F92
:1003E800000EA96F000EAA6FB00EAB6F800EAC6F37
:1003F800000EAD6F820EAE6F060EAF6F000EB06FBF
:10040800000EB16F000EB26F000EB36F000E2D6EAE
:10041800000E2E6ECDEC03F0000E2D6E000E2E6E2B
:10042800C8EC03F0000E2D6E000E2E6ED2EC03F019
:10043800000E2B6E120040C544F541C545F5000E6F
:10044800226E000E216E3BEF02F03EC538F53FC527
:1004580039F5440E3A6E050E3B6E42C53CF543C570
:100468003DF5DAEC00F0385021263950222261009F
:1004780010F5F6F4610014F5F7F4F86A0800F55081
:100488000009D8A44AEF02F04CEF02F029EF02F07D
:1004980021C53EF522C53FF51200000EBE6E000EC6
:1004A800BF6E020EC06E3F0EC66E700EC76EFD0E9A
:1004B800C86EFE0E0401106FD00E086F070E006F95
:1004C800000E096F300E016F030E116F000E026FE0
:1004D800000E0A6F000E126F370E036FF00E0B6FCF
:1004E80013693F0E046FF00E0C6F1469100E0201B1
:1004F800106F100E486F0D0E726F1200CEB887EF96
:1005080002F08BEF02F02D6A2D2A8CEF02F02D6A93
:100518002D50CEBA92EF02F096EF02F02E6A2E2AF4
:1005280097EF02F02E6A2EC52FF5306AD8902F3635
:1005380030362F26000E3022010E2F244E6E000E6C
:1005480030204F6E1200700E466EFF0E476E3EEC66
:1005580003F0DE0E466EFE0E476E3EEC03F05D0EB7
:10056800466EFD0E476E3EEC03F02D0E466EFE0EF7
:10057800476E3EEC03F0A70E466EFD0E476E3EEC4E
:1005880003F01200000E0001D56F0A0ED76F100E8F
:10059800D86F140ED96F140EDA6F140EDB6F020EBB
:1005A800DC6F000EDD6F000EDE6F000EDF6F000ED9
:1005B800D46F9E0ED66FB39AA88A1200480E466E64
:1005C800FF0E476E3EEC03F0BA0E466EFF0E476E06
:1005D8003EEC03F00001A39F000EA46F020EA56F6E
:1005E800010EA66FC80EA36F1200ED0E466EFD0E2B
:1005F800476E3EEC03F0BA0E466EFF0E476E3EECB9
:1006080003F00001A39F5F0EA46F120EA56F810E69
:10061800A66FC00EA36F1200690E466EFE0E476EDF
:100628003EEC03F0970E466EFF0E476E3EEC03F06D
:100638000001A39F5A0EA46F130EA56F800EA66F1C
:10064800C00EA36F1200A50E466EFE0E476E3EEC5E
:1006580003F0150E466EFF0E476E3EEC03F00001E8
:10066800A39F020EA46F220EA56F010EA66FC00EE7
:10067800A36F1200480E4A6E050E4B6E000E3E6EBA
:10068800000E3F6E46C540F547C541F54A0E426E1D
:10069800050E436E1FEC02F01200E0EC03F092EC42
:1006A80003F051EC02F0A0EC03F0C6EC02F083EC8E
:1006B80003F0EBEC01F0AEEC03F01200A8AA67EF30
:1006C80003F069EF03F072EF03F0B3AA6EEF03F0E3
:1006D80070EF03F072EF03F0DCEC03F0110001EEB1
:1006E80001F12C0EEE6AE806FDE10401080E5D6FCB
:1006F800000E5E6F000E5F6F00010FEF00F0040E3A
:100708000301206F130E1F6F000E216FC10E1D6FA6
:10071800000E1C6FB696B00E1E6F1200000E000180
:10072800636F000E646F000E656F000E666F000E3B
:10073800676F000E686F1200600E0001AD6F000E4B
:10074800AF6F000EB36F080EB16F000EB06F000EE2
:10075800AC6F1200020E0001A46F220EA56F010EED
:10076800A66F000EA76F000EA96FC00EA36F120030
:100778002D6EB7A2C2EF03F0C4EF03F0BDEF03F094
:100788006100B4F4A3F212002DC552F52EC553F53D
:1007980012002DC554F52EC555F512002DC550F57E
:1007A8002EC551F512002E6E2E50BCEC03F012002F
:0C07B800B39A010E2C6E1200D69A1200AB
:10FD5C00005072657373205357302061667465725E
:10FD6C002073656C656374696E67206D6F646520C4
:10FD7C006F66206F7065726174696F6E20746F208E
:10FD8C007265636F6E666967757265204F504120AE
:10FD9C006D6F64756C652E200D0A002D2D2D2D2D8B
:10FDAC002D2D2D2D2D2D2D2D2D2D2D2D2D2D2D2D77
:10FDBC002D2D2D2D2D2D2D2D2D2D2D2D2D2D2D2D67
:10FDCC002D2D2D2D2D2D2D2D2D2D2D2D2D2D2D2D57
:10FDDC002D2D2D2D2D2D2D2D2D2D2D2D2D2D0D0A8A
:10FDEC00004F504120436F6E66696775726174698C
:10FDFC006F6E3A204E6F6E2D496E76657274696E19
:10FE0C00672050726F6772616D6D61626C6520471F
:10FE1C0061696E20416D706C6966696572200D0AAE
:10FE2C0000506C6561736520726566657220746F35
:10FE3C0020696E636C7564656420726561646D65C0
:10FE4C002E6D6420666F72206D6F726520696E6610
:10FE5C006F726D6174696F6E2E200D0A004F5041E8
:10FE6C0020436F6E66696775726174696F6E3A20B4
:10FE7C00496E76657274696E672050726F67726135
:10FE8C006D6D61626C65204761696E20416D706CAF
:10FE9C006966696572200D0A004F504120436F6EF0
:10FEAC0066696775726174696F6E3A204469726530
:10FEBC00637420436F6E6E656374696F6E20746F2C
:10FECC002045787465726E616C2050696E73200DDC
:10FEDC000A0053656C656374204F5041206D6F644C
:10FEEC0065206F66206F7065726174696F6E207526
:10FEFC0073696E672070696E732052413420616E95
:10FF0C0064205241352E0D0A004F5041314F55544B
:10FF1C00203D20524332207C204F504131494E2B02
:10FF2C00203D20524333207C204F504131494E2DEF
:10FF3C00203D20524132200D0A0D0A004F50412025
:10FF4C00436F6E66696775726174696F6E3A20559E
:10FF5C006E697479204761696E20427566666572B8
:10FF6C00200D0A0050494331384631365134312086
:10FF7C00437572696F73697479204E616E6F204F8F
:10FF8C0050412044656D6F200D0A004F5041314F98
:10FF9C005554203D20524332207C204F5041314952
:10FFAC004E2D203D20524132200D0A0D0A004F509B
:10FFBC0041314F5554203D20524332207C204F502C
:10FFCC004131494E2B203D20524333200D0A0D0A5E
:10FFDC00004F504120436F6E66696775726174699A
:10FFEC006F6E20496E707574204572726F7221208D
:04FFFC000D0A0000EA
:020000040020DA
:10000000FF0FFF0FFF0FFF0FFF0FFF0FFF0FFF0F80
:10001000FF0FFF0FFF0FFF0FFF0FFF0FFF0FFF0F70
:020000040030CA
:0A0000008CFFF7FF9FFFFFFFFFFFDB
:00000001FF
